0977052831BOLOTAULO, IAN CRESCENCIO               00000000032729709703954       
0977050375CAPA, PEPE JUSTO                        00000000042729709703954       
0977051622DELA CRUZ, ALEJANDRO SIMBLANTE          00000000042729709703954       
0977050391DELA TORRE, PAPIAS APOSTOL              00000000045353609703954       
0976163249GONZALES, DONIO HAVANA  JR.             00000000035353609703954       
0977051266LINGATONG, REYNALDO SALIBAY             00000000020899609703954       
9999999999PROVINCE OF AGUSAN DEL SU000000002197959000000015215735989200006 03954
