0977078458ALABAN, MARLON ARLOS                    00000000023000009703956       
0977078377BESUENO, ARNEL JOY MOHAMETANO           00000000029000009703956       
0977078369CAAYON, REY ADRIAN                      00000000029000009703956       
0977078431CAÑON, JESSIE SUGANOB                   00000000029000009703956       
0977078415CANTIL, ALLAN AMIS                      00000000019000009703956       
0977083800CRUDA, RUEL DIAZ                        00000000025000009703956       
0977078440DALOGDOG, DARWIN MONTERDE               00000000025000009703956       
0977078393EMPUESTO, HENRY REVERA                  00000000025000009703956       
0977078423JAVA, REYNALDO DAYAO                    00000000027000009703956       
0977083842JOROLAN, DANIEL SAYSON                  00000000021000009703956       
0977054044MASLOG, JELVERN SAGA                    00000000025000009703956       
0977084245OBENA, ARIEL ERANDIO                    00000000013000009703956       
3446130110PILAPIL, RYAN LEQUIN                    00000000027000034403956       
0977083834PLAZA, GODSON LOIE LAPIZ                00000000029000009703956       
0977054109REFUGIO, RONELIO ROA                    00000000029000009703956       
0977054117RIVERA, ROBERTO TOLIBAO                 00000000029000009703956       
0977073421TAYAPAD, RICHARD  PALET                 00000000017000009703956       
0977084229TORREVILLAS, LOUIE BONIEL               00000000029000009703956       
0977078385WINFIELD, BETTY PILAPIL                 00000000035994809703956       
9999999999PROVINCE OF AGUSAN DEL SU000000004859948000000038049725398000019 03956
