0977086159ABUCAYON, ROGER MADELO                  00000000041000009703955       
0977085667ACOSTA, JOSHUA PAJES                    00000000037000009703955       
0977090610AL-AG, MICHAEL GALDIANO                 00000000041000009703955       
0977085713ANES, ANTONIO BELVISTRE                 00000000039000009703955       
0977085675APELLANES, ANTONIO  HERMOZA  JR.        00000000032400009703955       
0977041112BRIONES, DONNAH BLESS VILLAR            00000000074027109703955       
0977085683CABALHIN, ALFRICKELLY DALAGAN           00000000036400009703955       
0977093945CABARSE, RANDY POCOT                    00000000023000009703955       
0977080177CAPA, ALBERT                            00000000041500009703955       
0977085535CAPA, CLEO DAVE RUPA                    00000000017500009703955       
0977093937COSIDO, JAY GARCIA                      00000000029000009703955       
0977085870COSTELO, MAN REX CORVODA                00000000037500009703955       
0977093910CRUZ, REYMUNDO TUGA                     00000000029000009703955       
0977085632DIALINO, ARIEL OSIC                     00000000029500009703955       
0977090628DIGAL, DEXTER SALADAGA                  00000000029500009703955       
0977075092DOMINGO, NENITA REFUERZO                00000000033500009703955       
0977085764ESCARDA, ARMANDO SIMBORIO               00000000037500009703955       
0977085772FLORES, ALDRIN DELICA                   00000000037500009703955       
0977085705FLORIDA, FELIX TEÑEDA  JR               00000000039500009703955       
0977075203GARCELAZO, NOEL  CAORES                 00000000037500009703955       
0977091802GOLINDANG, KIRBY DALE BOQUILON          00000000036494809703955       
0977075173GUMAPON, DIONO PANDE                    00000000033500009703955       
0977090440LALISAN, HANNAH FAITH LAGUMBAY          00000000037500009703955       
0977085888LIMBO, EVELYN POMIDA                    00000000037500009703955       
0977085853MALUNES, LAURETO HEROSA  JR.            00000000049500009703955       
0977086205MAQUILAN, JASON ACLAN                   00000000033500009703955       
0977088410NOJA, ALEXES ALABA                      00000000054968809703955       
0977085861OLARTE, SAMUEL QUIPIT                   00000000037500009703955       
0977085896PANGANORON, JOSEPHINE  ERANDIO          00000000037500009703955       
0977085829PORCARE, ALEX CARTAGENA                 00000000037500009703955       
0977085730PORCARE, FEL CARTAGENA                  00000000045500009703955       
0977093929ROA, RONEL NILLAS                       00000000029000009703955       
0977054184RUEDAS, RHEALYN DAPITON                 00000000042155809703955       
0977079632RUPA, ANALYN  CAGO                      00000000037500009703955       
0977085691SABATIN, ERIC SANCHEZ                   00000000017500009703955       
0977048648SALINDONG, ESTRELLA  GAVIOLA            00000000031717609703955       
0977054192SEYMOUR, CRIXANNE LIE MONTES            00000000039838809703955       
0977079640TOMONTON, ALEXANDER CANDOR              00000000041500009703955       
0977085918URETA, MARIO DURIAS                     00000000039500009703955       
0977094542UYGIOCO, ALEXANDRA SUYAO                00000000066144909703955       
9999999999PROVINCE OF AGUSAN DEL SU000000015086478000000122890692630200040 03955
